{
  "contractName": "UniqueAsset",
  "abi": [
    {
      "inputs": [],
      "stateMutability": "nonpayable",
      "type": "constructor"
    },
    {
      "anonymous": false,
      "inputs": [
        {
          "indexed": true,
          "internalType": "address",
          "name": "owner",
          "type": "address"
        },
        {
          "indexed": true,
          "internalType": "address",
          "name": "approved",
          "type": "address"
        },
        {
          "indexed": true,
          "internalType": "uint256",
          "name": "tokenId",
          "type": "uint256"
        }
      ],
      "name": "Approval",
      "type": "event"
    },
    {
      "anonymous": false,
      "inputs": [
        {
          "indexed": true,
          "internalType": "address",
          "name": "owner",
          "type": "address"
        },
        {
          "indexed": true,
          "internalType": "address",
          "name": "operator",
          "type": "address"
        },
        {
          "indexed": false,
          "internalType": "bool",
          "name": "approved",
          "type": "bool"
        }
      ],
      "name": "ApprovalForAll",
      "type": "event"
    },
    {
      "anonymous": false,
      "inputs": [
        {
          "indexed": true,
          "internalType": "address",
          "name": "from",
          "type": "address"
        },
        {
          "indexed": true,
          "internalType": "address",
          "name": "to",
          "type": "address"
        },
        {
          "indexed": true,
          "internalType": "uint256",
          "name": "tokenId",
          "type": "uint256"
        }
      ],
      "name": "Transfer",
      "type": "event"
    },
    {
      "inputs": [
        {
          "internalType": "address",
          "name": "to",
          "type": "address"
        },
        {
          "internalType": "uint256",
          "name": "tokenId",
          "type": "uint256"
        }
      ],
      "name": "approve",
      "outputs": [],
      "stateMutability": "nonpayable",
      "type": "function"
    },
    {
      "inputs": [
        {
          "internalType": "address",
          "name": "owner",
          "type": "address"
        }
      ],
      "name": "balanceOf",
      "outputs": [
        {
          "internalType": "uint256",
          "name": "",
          "type": "uint256"
        }
      ],
      "stateMutability": "view",
      "type": "function",
      "constant": true
    },
    {
      "inputs": [],
      "name": "baseURI",
      "outputs": [
        {
          "internalType": "string",
          "name": "",
          "type": "string"
        }
      ],
      "stateMutability": "view",
      "type": "function",
      "constant": true
    },
    {
      "inputs": [
        {
          "internalType": "uint256",
          "name": "tokenId",
          "type": "uint256"
        }
      ],
      "name": "getApproved",
      "outputs": [
        {
          "internalType": "address",
          "name": "",
          "type": "address"
        }
      ],
      "stateMutability": "view",
      "type": "function",
      "constant": true
    },
    {
      "inputs": [
        {
          "internalType": "address",
          "name": "owner",
          "type": "address"
        },
        {
          "internalType": "address",
          "name": "operator",
          "type": "address"
        }
      ],
      "name": "isApprovedForAll",
      "outputs": [
        {
          "internalType": "bool",
          "name": "",
          "type": "bool"
        }
      ],
      "stateMutability": "view",
      "type": "function",
      "constant": true
    },
    {
      "inputs": [],
      "name": "name",
      "outputs": [
        {
          "internalType": "string",
          "name": "",
          "type": "string"
        }
      ],
      "stateMutability": "view",
      "type": "function",
      "constant": true
    },
    {
      "inputs": [
        {
          "internalType": "uint256",
          "name": "tokenId",
          "type": "uint256"
        }
      ],
      "name": "ownerOf",
      "outputs": [
        {
          "internalType": "address",
          "name": "",
          "type": "address"
        }
      ],
      "stateMutability": "view",
      "type": "function",
      "constant": true
    },
    {
      "inputs": [
        {
          "internalType": "address",
          "name": "from",
          "type": "address"
        },
        {
          "internalType": "address",
          "name": "to",
          "type": "address"
        },
        {
          "internalType": "uint256",
          "name": "tokenId",
          "type": "uint256"
        }
      ],
      "name": "safeTransferFrom",
      "outputs": [],
      "stateMutability": "nonpayable",
      "type": "function"
    },
    {
      "inputs": [
        {
          "internalType": "address",
          "name": "from",
          "type": "address"
        },
        {
          "internalType": "address",
          "name": "to",
          "type": "address"
        },
        {
          "internalType": "uint256",
          "name": "tokenId",
          "type": "uint256"
        },
        {
          "internalType": "bytes",
          "name": "_data",
          "type": "bytes"
        }
      ],
      "name": "safeTransferFrom",
      "outputs": [],
      "stateMutability": "nonpayable",
      "type": "function"
    },
    {
      "inputs": [
        {
          "internalType": "address",
          "name": "operator",
          "type": "address"
        },
        {
          "internalType": "bool",
          "name": "approved",
          "type": "bool"
        }
      ],
      "name": "setApprovalForAll",
      "outputs": [],
      "stateMutability": "nonpayable",
      "type": "function"
    },
    {
      "inputs": [
        {
          "internalType": "bytes4",
          "name": "interfaceId",
          "type": "bytes4"
        }
      ],
      "name": "supportsInterface",
      "outputs": [
        {
          "internalType": "bool",
          "name": "",
          "type": "bool"
        }
      ],
      "stateMutability": "view",
      "type": "function",
      "constant": true
    },
    {
      "inputs": [],
      "name": "symbol",
      "outputs": [
        {
          "internalType": "string",
          "name": "",
          "type": "string"
        }
      ],
      "stateMutability": "view",
      "type": "function",
      "constant": true
    },
    {
      "inputs": [
        {
          "internalType": "uint256",
          "name": "index",
          "type": "uint256"
        }
      ],
      "name": "tokenByIndex",
      "outputs": [
        {
          "internalType": "uint256",
          "name": "",
          "type": "uint256"
        }
      ],
      "stateMutability": "view",
      "type": "function",
      "constant": true
    },
    {
      "inputs": [
        {
          "internalType": "address",
          "name": "owner",
          "type": "address"
        },
        {
          "internalType": "uint256",
          "name": "index",
          "type": "uint256"
        }
      ],
      "name": "tokenOfOwnerByIndex",
      "outputs": [
        {
          "internalType": "uint256",
          "name": "",
          "type": "uint256"
        }
      ],
      "stateMutability": "view",
      "type": "function",
      "constant": true
    },
    {
      "inputs": [
        {
          "internalType": "uint256",
          "name": "tokenId",
          "type": "uint256"
        }
      ],
      "name": "tokenURI",
      "outputs": [
        {
          "internalType": "string",
          "name": "",
          "type": "string"
        }
      ],
      "stateMutability": "view",
      "type": "function",
      "constant": true
    },
    {
      "inputs": [],
      "name": "totalSupply",
      "outputs": [
        {
          "internalType": "uint256",
          "name": "",
          "type": "uint256"
        }
      ],
      "stateMutability": "view",
      "type": "function",
      "constant": true
    },
    {
      "inputs": [
        {
          "internalType": "address",
          "name": "from",
          "type": "address"
        },
        {
          "internalType": "address",
          "name": "to",
          "type": "address"
        },
        {
          "internalType": "uint256",
          "name": "tokenId",
          "type": "uint256"
        }
      ],
      "name": "transferFrom",
      "outputs": [],
      "stateMutability": "nonpayable",
      "type": "function"
    },
    {
      "inputs": [
        {
          "internalType": "address",
          "name": "recipient",
          "type": "address"
        },
        {
          "internalType": "string",
          "name": "hash",
          "type": "string"
        },
        {
          "internalType": "string",
          "name": "metadata",
          "type": "string"
        }
      ],
      "name": "awardItem",
      "outputs": [
        {
          "internalType": "uint256",
          "name": "",
          "type": "uint256"
        }
      ],
      "stateMutability": "nonpayable",
      "type": "function"
    }
  ],
  "bytecode": "0x60806040523480156200001157600080fd5b50604080518082018252600b81526a155b9a5c5d59505cdcd95d60aa1b60208083019190915282518084019093526003835262554e4160e81b9083015290620000616301ffc9a760e01b620000cb565b81516200007690600690602085019062000150565b5080516200008c90600790602084019062000150565b506200009f6380ac58cd60e01b620000cb565b620000b1635b5e139f60e01b620000cb565b620000c363780e9d6360e01b620000cb565b5050620001ec565b6001600160e01b031980821614156200012b576040805162461bcd60e51b815260206004820152601c60248201527f4552433136353a20696e76616c696420696e7465726661636520696400000000604482015290519081900360640190fd5b6001600160e01b0319166000908152602081905260409020805460ff19166001179055565b828054600181600116156101000203166002900490600052602060002090601f016020900481019282601f106200019357805160ff1916838001178555620001c3565b82800160010185558215620001c3579182015b82811115620001c3578251825591602001919060010190620001a6565b50620001d1929150620001d5565b5090565b5b80821115620001d15760008155600101620001d6565b611e8d80620001fc6000396000f3fe608060405234801561001057600080fd5b50600436106101165760003560e01c80636352211e116100a257806395d89b411161007157806395d89b4114610491578063a22cb46514610499578063b88d4fde146104c7578063c87b56dd1461058d578063e985e9c5146105aa57610116565b80636352211e146103095780636c0360eb1461032657806370a082311461032e5780638bfaf1011461035457610116565b806318160ddd116100e957806318160ddd1461023a57806323b872dd146102545780632f745c591461028a57806342842e0e146102b65780634f6ccce7146102ec57610116565b806301ffc9a71461011b57806306fdde0314610156578063081812fc146101d3578063095ea7b31461020c575b600080fd5b6101426004803603602081101561013157600080fd5b50356001600160e01b0319166105d8565b604080519115158252519081900360200190f35b61015e6105fb565b6040805160208082528351818301528351919283929083019185019080838360005b83811015610198578181015183820152602001610180565b50505050905090810190601f1680156101c55780820380516001836020036101000a031916815260200191505b509250505060405180910390f35b6101f0600480360360208110156101e957600080fd5b5035610691565b604080516001600160a01b039092168252519081900360200190f35b6102386004803603604081101561022257600080fd5b506001600160a01b0381351690602001356106f3565b005b6102426107ce565b60408051918252519081900360200190f35b6102386004803603606081101561026a57600080fd5b506001600160a01b038135811691602081013590911690604001356107df565b610242600480360360408110156102a057600080fd5b506001600160a01b038135169060200135610836565b610238600480360360608110156102cc57600080fd5b506001600160a01b03813581169160208101359091169060400135610861565b6102426004803603602081101561030257600080fd5b503561087c565b6101f06004803603602081101561031f57600080fd5b5035610892565b61015e6108ba565b6102426004803603602081101561034457600080fd5b50356001600160a01b031661091b565b6102426004803603606081101561036a57600080fd5b6001600160a01b03823516919081019060408101602082013564010000000081111561039557600080fd5b8201836020820111156103a757600080fd5b803590602001918460018302840111640100000000831117156103c957600080fd5b91908080601f016020809104026020016040519081016040528093929190818152602001838380828437600092019190915250929594936020810193503591505064010000000081111561041c57600080fd5b82018360208201111561042e57600080fd5b8035906020019184600183028401116401000000008311171561045057600080fd5b91908080601f016020809104026020016040519081016040528093929190818152602001838380828437600092019190915250929550610983945050505050565b61015e610aa4565b610238600480360360408110156104af57600080fd5b506001600160a01b0381351690602001351515610b05565b610238600480360360808110156104dd57600080fd5b6001600160a01b0382358116926020810135909116916040820135919081019060808101606082013564010000000081111561051857600080fd5b82018360208201111561052a57600080fd5b8035906020019184600183028401116401000000008311171561054c57600080fd5b91908080601f016020809104026020016040519081016040528093929190818152602001838380828437600092019190915250929550610c0a945050505050565b61015e600480360360208110156105a357600080fd5b5035610c68565b610142600480360360408110156105c057600080fd5b506001600160a01b0381358116916020013516610f0f565b6001600160e01b0319811660009081526020819052604090205460ff165b919050565b60068054604080516020601f60026000196101006001881615020190951694909404938401819004810282018101909252828152606093909290918301828280156106875780601f1061065c57610100808354040283529160200191610687565b820191906000526020600020905b81548152906001019060200180831161066a57829003601f168201915b5050505050905090565b600061069c82610f3d565b6106d75760405162461bcd60e51b815260040180806020018281038252602c815260200180611d56602c913960400191505060405180910390fd5b506000908152600460205260409020546001600160a01b031690565b60006106fe82610892565b9050806001600160a01b0316836001600160a01b031614156107515760405162461bcd60e51b8152600401808060200182810382526021815260200180611e066021913960400191505060405180910390fd5b806001600160a01b0316610763610f4a565b6001600160a01b0316148061078457506107848161077f610f4a565b610f0f565b6107bf5760405162461bcd60e51b8152600401808060200182810382526038815260200180611ca96038913960400191505060405180910390fd5b6107c98383610f4e565b505050565b60006107da6002610fbc565b905090565b6107f06107ea610f4a565b82610fc7565b61082b5760405162461bcd60e51b8152600401808060200182810382526031815260200180611e276031913960400191505060405180910390fd5b6107c983838361106b565b6001600160a01b038216600090815260016020526040812061085890836111b7565b90505b92915050565b6107c983838360405180602001604052806000815250610c0a565b60008061088a6002846111c3565b509392505050565b600061085b82604051806060016040528060298152602001611d0b60299139600291906111df565b60098054604080516020601f60026000196101006001881615020190951694909404938401819004810282018101909252828152606093909290918301828280156106875780601f1061065c57610100808354040283529160200191610687565b60006001600160a01b0382166109625760405162461bcd60e51b815260040180806020018281038252602a815260200180611ce1602a913960400191505060405180910390fd5b6001600160a01b038216600090815260016020526040902061085b90610fbc565b6000600b836040518082805190602001908083835b602083106109b75780518252601f199092019160209182019101610998565b51815160001960209485036101000a0190811690199190911617905292019485525060405193849003019092205460ff166001141591506109f9905057600080fd5b6001600b846040518082805190602001908083835b60208310610a2d5780518252601f199092019160209182019101610a0e565b51815160209384036101000a60001901801990921691161790529201948552506040519384900301909220805460ff191660ff949094169390931790925550610a789050600a6111ec565b6000610a84600a6111f5565b9050610a9085826111f9565b610a9a8184611327565b90505b9392505050565b60078054604080516020601f60026000196101006001881615020190951694909404938401819004810282018101909252828152606093909290918301828280156106875780601f1061065c57610100808354040283529160200191610687565b610b0d610f4a565b6001600160a01b0316826001600160a01b03161415610b73576040805162461bcd60e51b815260206004820152601960248201527f4552433732313a20617070726f766520746f2063616c6c657200000000000000604482015290519081900360640190fd5b8060056000610b80610f4a565b6001600160a01b03908116825260208083019390935260409182016000908120918716808252919093529120805460ff191692151592909217909155610bc4610f4a565b6001600160a01b03167f17307eab39ab6107e8899845ad3d59bd9653f200f220920489ca2b5937696c318360405180821515815260200191505060405180910390a35050565b610c1b610c15610f4a565b83610fc7565b610c565760405162461bcd60e51b8152600401808060200182810382526031815260200180611e276031913960400191505060405180910390fd5b610c628484848461138a565b50505050565b6060610c7382610f3d565b610cae5760405162461bcd60e51b815260040180806020018281038252602f815260200180611dd7602f913960400191505060405180910390fd5b60008281526008602090815260409182902080548351601f6002600019610100600186161502019093169290920491820184900484028101840190945280845260609392830182828015610d435780601f10610d1857610100808354040283529160200191610d43565b820191906000526020600020905b815481529060010190602001808311610d2657829003601f168201915b505060095493945050505060026000196101006001841615020190911604610d6c5790506105f6565b805115610e3d576009816040516020018083805460018160011615610100020316600290048015610dd45780601f10610db2576101008083540402835291820191610dd4565b820191906000526020600020905b815481529060010190602001808311610dc0575b5050825160208401908083835b60208310610e005780518252601f199092019160209182019101610de1565b6001836020036101000a038019825116818451168082178552505050505050905001925050506040516020818303038152906040529150506105f6565b6009610e48846113dc565b6040516020018083805460018160011615610100020316600290048015610ea65780601f10610e84576101008083540402835291820191610ea6565b820191906000526020600020905b815481529060010190602001808311610e92575b5050825160208401908083835b60208310610ed25780518252601f199092019160209182019101610eb3565b6001836020036101000a03801982511681845116808217855250505050505090500192505050604051602081830303815290604052915050919050565b6001600160a01b03918216600090815260056020908152604080832093909416825291909152205460ff1690565b600061085b6002836114b7565b3390565b600081815260046020526040902080546001600160a01b0319166001600160a01b0384169081179091558190610f8382610892565b6001600160a01b03167f8c5be1e5ebec7d5bd14f71427d1e84f3dd0314c0f7b2291e5b200ac8c7c3b92560405160405180910390a45050565b600061085b826111f5565b6000610fd282610f3d565b61100d5760405162461bcd60e51b815260040180806020018281038252602c815260200180611c7d602c913960400191505060405180910390fd5b600061101883610892565b9050806001600160a01b0316846001600160a01b031614806110535750836001600160a01b031661104884610691565b6001600160a01b0316145b8061106357506110638185610f0f565b949350505050565b826001600160a01b031661107e82610892565b6001600160a01b0316146110c35760405162461bcd60e51b8152600401808060200182810382526029815260200180611dae6029913960400191505060405180910390fd5b6001600160a01b0382166111085760405162461bcd60e51b8152600401808060200182810382526024815260200180611c596024913960400191505060405180910390fd5b6111138383836107c9565b61111e600082610f4e565b6001600160a01b038316600090815260016020526040902061114090826114c3565b506001600160a01b038216600090815260016020526040902061116390826114cf565b50611170600282846114db565b5080826001600160a01b0316846001600160a01b03167fddf252ad1be2c89b69c2b068fc378daa952ba7f163c4a11628f55a4df523b3ef60405160405180910390a4505050565b600061085883836114f1565b60008080806111d28686611555565b9097909650945050505050565b6000610a9a8484846115d0565b80546001019055565b5490565b6001600160a01b038216611254576040805162461bcd60e51b815260206004820181905260248201527f4552433732313a206d696e7420746f20746865207a65726f2061646472657373604482015290519081900360640190fd5b61125d81610f3d565b156112af576040805162461bcd60e51b815260206004820152601c60248201527f4552433732313a20746f6b656e20616c7265616479206d696e74656400000000604482015290519081900360640190fd5b6112bb600083836107c9565b6001600160a01b03821660009081526001602052604090206112dd90826114cf565b506112ea600282846114db565b5060405181906001600160a01b038416906000907fddf252ad1be2c89b69c2b068fc378daa952ba7f163c4a11628f55a4df523b3ef908290a45050565b61133082610f3d565b61136b5760405162461bcd60e51b815260040180806020018281038252602c815260200180611d82602c913960400191505060405180910390fd5b600082815260086020908152604090912082516107c992840190611b71565b61139584848461106b565b6113a18484848461169a565b610c625760405162461bcd60e51b8152600401808060200182810382526032815260200180611c276032913960400191505060405180910390fd5b60608161140157506040805180820190915260018152600360fc1b60208201526105f6565b8160005b811561141957600101600a82049150611405565b60608167ffffffffffffffff8111801561143257600080fd5b506040519080825280601f01601f19166020018201604052801561145d576020820181803683370190505b50859350905060001982015b83156114ae57600a840660300160f81b8282806001900393508151811061148c57fe5b60200101906001600160f81b031916908160001a905350600a84049350611469565b50949350505050565b60006108588383611802565b6000610858838361181a565b600061085883836118e0565b6000610a9a84846001600160a01b03851661192a565b815460009082106115335760405162461bcd60e51b8152600401808060200182810382526022815260200180611c056022913960400191505060405180910390fd5b82600001828154811061154257fe5b9060005260206000200154905092915050565b8154600090819083106115995760405162461bcd60e51b8152600401808060200182810382526022815260200180611d346022913960400191505060405180910390fd5b60008460000184815481106115aa57fe5b906000526020600020906002020190508060000154816001015492509250509250929050565b6000828152600184016020526040812054828161166b5760405162461bcd60e51b81526004018080602001828103825283818151815260200191508051906020019080838360005b83811015611630578181015183820152602001611618565b50505050905090810190601f16801561165d5780820380516001836020036101000a031916815260200191505b509250505060405180910390fd5b5084600001600182038154811061167e57fe5b9060005260206000209060020201600101549150509392505050565b60006116ae846001600160a01b03166119c1565b6116ba57506001611063565b60606117c8630a85bd0160e11b6116cf610f4a565b88878760405160240180856001600160a01b03168152602001846001600160a01b0316815260200183815260200180602001828103825283818151815260200191508051906020019080838360005b8381101561173657818101518382015260200161171e565b50505050905090810190601f1680156117635780820380516001836020036101000a031916815260200191505b5095505050505050604051602081830303815290604052906001600160e01b0319166020820180516001600160e01b038381831617835250505050604051806060016040528060328152602001611c27603291396001600160a01b03881691906119fa565b905060008180602001905160208110156117e157600080fd5b50516001600160e01b031916630a85bd0160e11b1492505050949350505050565b60009081526001919091016020526040902054151590565b600081815260018301602052604081205480156118d6578354600019808301919081019060009087908390811061184d57fe5b906000526020600020015490508087600001848154811061186a57fe5b60009182526020808320909101929092558281526001898101909252604090209084019055865487908061189a57fe5b6001900381819060005260206000200160009055905586600101600087815260200190815260200160002060009055600194505050505061085b565b600091505061085b565b60006118ec8383611802565b6119225750815460018181018455600084815260208082209093018490558454848252828601909352604090209190915561085b565b50600061085b565b60008281526001840160205260408120548061198f575050604080518082018252838152602080820184815286546001818101895560008981528481209551600290930290950191825591519082015586548684528188019092529290912055610a9d565b828560000160018303815481106119a257fe5b9060005260206000209060020201600101819055506000915050610a9d565b6000813f7fc5d2460186f7233c927e7db2dcc703c0e500b653ca82273b7bfad8045d85a470818114801590611063575050151592915050565b6060610a9a84846000856060611a0f856119c1565b611a60576040805162461bcd60e51b815260206004820152601d60248201527f416464726573733a2063616c6c20746f206e6f6e2d636f6e7472616374000000604482015290519081900360640190fd5b60006060866001600160a01b031685876040518082805190602001908083835b60208310611a9f5780518252601f199092019160209182019101611a80565b6001836020036101000a03801982511681845116808217855250505050505090500191505060006040518083038185875af1925050503d8060008114611b01576040519150601f19603f3d011682016040523d82523d6000602084013e611b06565b606091505b50915091508115611b1a5791506110639050565b805115611b2a5780518082602001fd5b60405162461bcd60e51b8152602060048201818152865160248401528651879391928392604401919085019080838360008315611630578181015183820152602001611618565b828054600181600116156101000203166002900490600052602060002090601f016020900481019282601f10611bb257805160ff1916838001178555611bdf565b82800160010185558215611bdf579182015b82811115611bdf578251825591602001919060010190611bc4565b50611beb929150611bef565b5090565b5b80821115611beb5760008155600101611bf056fe456e756d657261626c655365743a20696e646578206f7574206f6620626f756e64734552433732313a207472616e7366657220746f206e6f6e20455243373231526563656976657220696d706c656d656e7465724552433732313a207472616e7366657220746f20746865207a65726f20616464726573734552433732313a206f70657261746f7220717565727920666f72206e6f6e6578697374656e7420746f6b656e4552433732313a20617070726f76652063616c6c6572206973206e6f74206f776e6572206e6f7220617070726f76656420666f7220616c6c4552433732313a2062616c616e636520717565727920666f7220746865207a65726f20616464726573734552433732313a206f776e657220717565727920666f72206e6f6e6578697374656e7420746f6b656e456e756d657261626c654d61703a20696e646578206f7574206f6620626f756e64734552433732313a20617070726f76656420717565727920666f72206e6f6e6578697374656e7420746f6b656e4552433732314d657461646174613a2055524920736574206f66206e6f6e6578697374656e7420746f6b656e4552433732313a207472616e73666572206f6620746f6b656e2074686174206973206e6f74206f776e4552433732314d657461646174613a2055524920717565727920666f72206e6f6e6578697374656e7420746f6b656e4552433732313a20617070726f76616c20746f2063757272656e74206f776e65724552433732313a207472616e736665722063616c6c6572206973206e6f74206f776e6572206e6f7220617070726f766564a26469706673582212201be528b278904ed4b5b43d7e53d95bc01c0e10b94f56af14cdc988281ffdaaed64736f6c634300060c0033",
  "immutableReferences": {},
  "source": "pragma solidity ^0.6.0;\r\nimport \"@openzeppelin/contracts/token/ERC721/ERC721.sol\";\r\nimport \"@openzeppelin/contracts/utils/Counters.sol\";\r\n\r\n\r\ncontract UniqueAsset is ERC721{\r\n  using Counters for Counters.Counter;\r\n    Counters.Counter private _tokenIds;\r\n    mapping(string => uint8) hashes;\r\n    \r\n  constructor() public ERC721(\"UniqueAsset\", \"UNA\") {\r\n      \r\n  }\r\n  \r\n  function awardItem(address recipient, string memory hash, string memory metadata)\r\n  public\r\n  returns (uint256)\r\n{\r\n  require(hashes[hash] != 1);\r\n  hashes[hash] = 1;\r\n  _tokenIds.increment();\r\n  uint256 newItemId = _tokenIds.current();\r\n  _mint(recipient, newItemId);\r\n  _setTokenURI(newItemId, metadata);\r\n  return newItemId;\r\n}\r\n\r\n}",
  "sourcePath": "C:/Users/Sachin/Desktop/nft/contracts/testcontract.sol",
  "compiler": {
    "name": "solc",
    "version": "0.6.12+commit.27d51765.Emscripten.clang"
  },
  "schemaVersion": "3.4.1",
  "updatedAt": "2021-06-30T02:29:44.810Z",
  "networkType": "ethereum",
  "devdoc": {
    "kind": "dev",
    "methods": {
      "approve(address,uint256)": {
        "details": "See {IERC721-approve}."
      },
      "balanceOf(address)": {
        "details": "See {IERC721-balanceOf}."
      },
      "baseURI()": {
        "details": "Returns the base URI set via {_setBaseURI}. This will be automatically added as a prefix in {tokenURI} to each token's URI, or to the token ID if no specific URI is set for that token ID."
      },
      "getApproved(uint256)": {
        "details": "See {IERC721-getApproved}."
      },
      "isApprovedForAll(address,address)": {
        "details": "See {IERC721-isApprovedForAll}."
      },
      "name()": {
        "details": "See {IERC721Metadata-name}."
      },
      "ownerOf(uint256)": {
        "details": "See {IERC721-ownerOf}."
      },
      "safeTransferFrom(address,address,uint256)": {
        "details": "See {IERC721-safeTransferFrom}."
      },
      "safeTransferFrom(address,address,uint256,bytes)": {
        "details": "See {IERC721-safeTransferFrom}."
      },
      "setApprovalForAll(address,bool)": {
        "details": "See {IERC721-setApprovalForAll}."
      },
      "supportsInterface(bytes4)": {
        "details": "See {IERC165-supportsInterface}. Time complexity O(1), guaranteed to always use less than 30 000 gas."
      },
      "symbol()": {
        "details": "See {IERC721Metadata-symbol}."
      },
      "tokenByIndex(uint256)": {
        "details": "See {IERC721Enumerable-tokenByIndex}."
      },
      "tokenOfOwnerByIndex(address,uint256)": {
        "details": "See {IERC721Enumerable-tokenOfOwnerByIndex}."
      },
      "tokenURI(uint256)": {
        "details": "See {IERC721Metadata-tokenURI}."
      },
      "totalSupply()": {
        "details": "See {IERC721Enumerable-totalSupply}."
      },
      "transferFrom(address,address,uint256)": {
        "details": "See {IERC721-transferFrom}."
      }
    },
    "version": 1
  },
  "userdoc": {
    "kind": "user",
    "methods": {},
    "version": 1
  }
}